{
  "contractName": "Kickstart",
  "abi": [
    {
      "inputs": [],
      "stateMutability": "nonpayable",
      "type": "constructor"
    },
    {
      "anonymous": false,
      "inputs": [
        {
          "indexed": true,
          "internalType": "uint256",
          "name": "id",
          "type": "uint256"
        },
        {
          "indexed": true,
          "internalType": "address",
          "name": "owner",
          "type": "address"
        },
        {
          "indexed": false,
          "internalType": "string",
          "name": "title",
          "type": "string"
        },
        {
          "indexed": false,
          "internalType": "uint256",
          "name": "goal",
          "type": "uint256"
        }
      ],
      "name": "CampaignCreated",
      "type": "event"
    },
    {
      "anonymous": false,
      "inputs": [
        {
          "indexed": true,
          "internalType": "uint256",
          "name": "id",
          "type": "uint256"
        },
        {
          "indexed": true,
          "internalType": "address",
          "name": "donor",
          "type": "address"
        },
        {
          "indexed": false,
          "internalType": "uint256",
          "name": "amount",
          "type": "uint256"
        },
        {
          "indexed": false,
          "internalType": "uint256",
          "name": "totalFunds",
          "type": "uint256"
        }
      ],
      "name": "Donated",
      "type": "event"
    },
    {
      "anonymous": false,
      "inputs": [
        {
          "indexed": true,
          "internalType": "uint256",
          "name": "id",
          "type": "uint256"
        },
        {
          "indexed": false,
          "internalType": "uint256",
          "name": "totalPromotions",
          "type": "uint256"
        }
      ],
      "name": "Promoted",
      "type": "event"
    },
    {
      "inputs": [],
      "name": "campaignCount",
      "outputs": [
        {
          "internalType": "uint256",
          "name": "",
          "type": "uint256"
        }
      ],
      "stateMutability": "view",
      "type": "function"
    },
    {
      "inputs": [
        {
          "internalType": "uint256",
          "name": "",
          "type": "uint256"
        }
      ],
      "name": "campaigns",
      "outputs": [
        {
          "internalType": "string",
          "name": "title",
          "type": "string"
        },
        {
          "internalType": "string",
          "name": "description",
          "type": "string"
        },
        {
          "internalType": "uint256",
          "name": "goal",
          "type": "uint256"
        },
        {
          "internalType": "uint256",
          "name": "funds",
          "type": "uint256"
        },
        {
          "internalType": "address",
          "name": "owner",
          "type": "address"
        },
        {
          "internalType": "uint256",
          "name": "promotions",
          "type": "uint256"
        }
      ],
      "stateMutability": "view",
      "type": "function"
    },
    {
      "inputs": [
        {
          "internalType": "uint256",
          "name": "",
          "type": "uint256"
        },
        {
          "internalType": "address",
          "name": "",
          "type": "address"
        }
      ],
      "name": "donations",
      "outputs": [
        {
          "internalType": "uint256",
          "name": "",
          "type": "uint256"
        }
      ],
      "stateMutability": "view",
      "type": "function"
    },
    {
      "inputs": [
        {
          "internalType": "uint256",
          "name": "",
          "type": "uint256"
        },
        {
          "internalType": "uint256",
          "name": "",
          "type": "uint256"
        }
      ],
      "name": "donors",
      "outputs": [
        {
          "internalType": "address",
          "name": "",
          "type": "address"
        }
      ],
      "stateMutability": "view",
      "type": "function"
    },
    {
      "inputs": [
        {
          "internalType": "string",
          "name": "_title",
          "type": "string"
        },
        {
          "internalType": "string",
          "name": "_description",
          "type": "string"
        },
        {
          "internalType": "uint256",
          "name": "_goal",
          "type": "uint256"
        }
      ],
      "name": "createCampaign",
      "outputs": [
        {
          "internalType": "uint256",
          "name": "id",
          "type": "uint256"
        }
      ],
      "stateMutability": "nonpayable",
      "type": "function"
    },
    {
      "inputs": [
        {
          "internalType": "uint256",
          "name": "_id",
          "type": "uint256"
        }
      ],
      "name": "donate",
      "outputs": [],
      "stateMutability": "payable",
      "type": "function"
    },
    {
      "inputs": [
        {
          "internalType": "uint256",
          "name": "_id",
          "type": "uint256"
        }
      ],
      "name": "promote",
      "outputs": [],
      "stateMutability": "nonpayable",
      "type": "function"
    },
    {
      "inputs": [
        {
          "internalType": "uint256",
          "name": "_id",
          "type": "uint256"
        }
      ],
      "name": "getCampaignCore",
      "outputs": [
        {
          "internalType": "string",
          "name": "title",
          "type": "string"
        },
        {
          "internalType": "string",
          "name": "description",
          "type": "string"
        },
        {
          "internalType": "uint256",
          "name": "goal",
          "type": "uint256"
        },
        {
          "internalType": "uint256",
          "name": "funds",
          "type": "uint256"
        },
        {
          "internalType": "address",
          "name": "owner",
          "type": "address"
        },
        {
          "internalType": "uint256",
          "name": "promotions",
          "type": "uint256"
        }
      ],
      "stateMutability": "view",
      "type": "function"
    },
    {
      "inputs": [
        {
          "internalType": "uint256",
          "name": "_id",
          "type": "uint256"
        }
      ],
      "name": "getDonors",
      "outputs": [
        {
          "internalType": "address[]",
          "name": "",
          "type": "address[]"
        }
      ],
      "stateMutability": "view",
      "type": "function"
    },
    {
      "inputs": [],
      "name": "getCampaignCount",
      "outputs": [
        {
          "internalType": "uint256",
          "name": "",
          "type": "uint256"
        }
      ],
      "stateMutability": "view",
      "type": "function"
    }
  ],
  "bytecode": "0x608060405234801561000f575f80fd5b5061163e8061001d5f395ff3fe608060405260043610610090575f3560e01c806383bd62dd1161005857806383bd62dd1461018d578063b58f5edc146101c9578063ee1554a31461020a578063f14faf6f14610246578063ffa56a571461026257610090565b8063141961bc1461009457806329516511146100d55780635455429e146101115780636caa9218146101395780637274e30d14610163575b5f80fd5b34801561009f575f80fd5b506100ba60048036038101906100b59190610c70565b61029e565b6040516100cc96959493929190610d73565b60405180910390f35b3480156100e0575f80fd5b506100fb60048036038101906100f69190610c70565b610400565b6040516101089190610e97565b60405180910390f35b34801561011c575f80fd5b5061013760048036038101906101329190610c70565b61049c565b005b348015610144575f80fd5b5061014d61059b565b60405161015a9190610eb7565b60405180910390f35b34801561016e575f80fd5b506101776105a4565b6040516101849190610eb7565b60405180910390f35b348015610198575f80fd5b506101b360048036038101906101ae9190610ed0565b6105aa565b6040516101c09190610f0e565b60405180910390f35b3480156101d4575f80fd5b506101ef60048036038101906101ea9190610c70565b6105f2565b60405161020196959493929190610d73565b60405180910390f35b348015610215575f80fd5b50610230600480360381019061022b9190610f51565b610770565b60405161023d9190610eb7565b60405180910390f35b610260600480360381019061025b9190610c70565b610790565b005b34801561026d575f80fd5b5061028860048036038101906102839190610ff0565b610a0e565b6040516102959190610eb7565b60405180910390f35b5f602052805f5260405f205f91509050805f0180546102bc906110ae565b80601f01602080910402602001604051908101604052809291908181526020018280546102e8906110ae565b80156103335780601f1061030a57610100808354040283529160200191610333565b820191905f5260205f20905b81548152906001019060200180831161031657829003601f168201915b505050505090806001018054610348906110ae565b80601f0160208091040260200160405190810160405280929190818152602001828054610374906110ae565b80156103bf5780601f10610396576101008083540402835291602001916103bf565b820191905f5260205f20905b8154815290600101906020018083116103a257829003601f168201915b505050505090806002015490806003015490806004015f9054906101000a900473ffffffffffffffffffffffffffffffffffffffff16908060050154905086565b606060015f8381526020019081526020015f2080548060200260200160405190810160405280929190818152602001828054801561049057602002820191905f5260205f20905b815f9054906101000a900473ffffffffffffffffffffffffffffffffffffffff1673ffffffffffffffffffffffffffffffffffffffff1681526020019060010190808311610447575b50505050509050919050565b5f805f8381526020019081526020015f2090503373ffffffffffffffffffffffffffffffffffffffff16816004015f9054906101000a900473ffffffffffffffffffffffffffffffffffffffff1673ffffffffffffffffffffffffffffffffffffffff1614610540576040517f08c379a000000000000000000000000000000000000000000000000000000000815260040161053790611128565b60405180910390fd5b6001816005015f8282546105549190611173565b92505081905550817ff3e396b17e18132f2d762cda0c9d962e896eb88d3b75dc234a95d415e0b450fb826005015460405161058f9190610eb7565b60405180910390a25050565b5f600354905090565b60035481565b6001602052815f5260405f2081815481106105c3575f80fd5b905f5260205f20015f915091509054906101000a900473ffffffffffffffffffffffffffffffffffffffff1681565b6060805f805f805f805f8981526020019081526020015f209050805f018160010182600201548360030154846004015f9054906101000a900473ffffffffffffffffffffffffffffffffffffffff168560050154858054610652906110ae565b80601f016020809104026020016040519081016040528092919081815260200182805461067e906110ae565b80156106c95780601f106106a0576101008083540402835291602001916106c9565b820191905f5260205f20905b8154815290600101906020018083116106ac57829003601f168201915b505050505095508480546106dc906110ae565b80601f0160208091040260200160405190810160405280929190818152602001828054610708906110ae565b80156107535780601f1061072a57610100808354040283529160200191610753565b820191905f5260205f20905b81548152906001019060200180831161073657829003601f168201915b505050505094509650965096509650965096505091939550919395565b6002602052815f5260405f20602052805f5260405f205f91509150505481565b5f34116107d2576040517f08c379a00000000000000000000000000000000000000000000000000000000081526004016107c9906111f0565b60405180910390fd5b5f805f8381526020019081526020015f2090505f73ffffffffffffffffffffffffffffffffffffffff16816004015f9054906101000a900473ffffffffffffffffffffffffffffffffffffffff1673ffffffffffffffffffffffffffffffffffffffff1603610876576040517f08c379a000000000000000000000000000000000000000000000000000000000815260040161086d90611258565b60405180910390fd5b34816003015f8282546108899190611173565b925050819055505f60025f8481526020019081526020015f205f3373ffffffffffffffffffffffffffffffffffffffff1673ffffffffffffffffffffffffffffffffffffffff1681526020019081526020015f2054036109535760015f8381526020019081526020015f2033908060018154018082558091505060019003905f5260205f20015f9091909190916101000a81548173ffffffffffffffffffffffffffffffffffffffff021916908373ffffffffffffffffffffffffffffffffffffffff1602179055505b3460025f8481526020019081526020015f205f3373ffffffffffffffffffffffffffffffffffffffff1673ffffffffffffffffffffffffffffffffffffffff1681526020019081526020015f205f8282546109ae9190611173565b925050819055503373ffffffffffffffffffffffffffffffffffffffff16827f27e413b8931dc4cb7edc879292ebc482a3047336d03423ea91addae7a2cf850a348460030154604051610a02929190611276565b60405180910390a35050565b5f808211610a51576040517f08c379a0000000000000000000000000000000000000000000000000000000008152600401610a48906112e7565b60405180910390fd5b600160035f828254610a639190611173565b9250508190555060035490506040518060c0016040528087878080601f0160208091040260200160405190810160405280939291908181526020018383808284375f81840152601f19601f82011690508083019250505050505050815260200185858080601f0160208091040260200160405190810160405280939291908181526020018383808284375f81840152601f19601f8201169050808301925050505050505081526020018381526020015f81526020013373ffffffffffffffffffffffffffffffffffffffff1681526020015f8152505f808381526020019081526020015f205f820151815f019081610b5b91906114cf565b506020820151816001019081610b7191906114cf565b5060408201518160020155606082015181600301556080820151816004015f6101000a81548173ffffffffffffffffffffffffffffffffffffffff021916908373ffffffffffffffffffffffffffffffffffffffff16021790555060a082015181600501559050503373ffffffffffffffffffffffffffffffffffffffff16817f825fb10f7650ed27414d6f86acdf7d5946927d9b25001f045f1a2435deec02fe888886604051610c24939291906115d8565b60405180910390a395945050505050565b5f80fd5b5f80fd5b5f819050919050565b610c4f81610c3d565b8114610c59575f80fd5b50565b5f81359050610c6a81610c46565b92915050565b5f60208284031215610c8557610c84610c35565b5b5f610c9284828501610c5c565b91505092915050565b5f81519050919050565b5f82825260208201905092915050565b5f5b83811015610cd2578082015181840152602081019050610cb7565b5f8484015250505050565b5f601f19601f8301169050919050565b5f610cf782610c9b565b610d018185610ca5565b9350610d11818560208601610cb5565b610d1a81610cdd565b840191505092915050565b610d2e81610c3d565b82525050565b5f73ffffffffffffffffffffffffffffffffffffffff82169050919050565b5f610d5d82610d34565b9050919050565b610d6d81610d53565b82525050565b5f60c0820190508181035f830152610d8b8189610ced565b90508181036020830152610d9f8188610ced565b9050610dae6040830187610d25565b610dbb6060830186610d25565b610dc86080830185610d64565b610dd560a0830184610d25565b979650505050505050565b5f81519050919050565b5f82825260208201905092915050565b5f819050602082019050919050565b610e1281610d53565b82525050565b5f610e238383610e09565b60208301905092915050565b5f602082019050919050565b5f610e4582610de0565b610e4f8185610dea565b9350610e5a83610dfa565b805f5b83811015610e8a578151610e718882610e18565b9750610e7c83610e2f565b925050600181019050610e5d565b5085935050505092915050565b5f6020820190508181035f830152610eaf8184610e3b565b905092915050565b5f602082019050610eca5f830184610d25565b92915050565b5f8060408385031215610ee657610ee5610c35565b5b5f610ef385828601610c5c565b9250506020610f0485828601610c5c565b9150509250929050565b5f602082019050610f215f830184610d64565b92915050565b610f3081610d53565b8114610f3a575f80fd5b50565b5f81359050610f4b81610f27565b92915050565b5f8060408385031215610f6757610f66610c35565b5b5f610f7485828601610c5c565b9250506020610f8585828601610f3d565b9150509250929050565b5f80fd5b5f80fd5b5f80fd5b5f8083601f840112610fb057610faf610f8f565b5b8235905067ffffffffffffffff811115610fcd57610fcc610f93565b5b602083019150836001820283011115610fe957610fe8610f97565b5b9250929050565b5f805f805f6060868803121561100957611008610c35565b5b5f86013567ffffffffffffffff81111561102657611025610c39565b5b61103288828901610f9b565b9550955050602086013567ffffffffffffffff81111561105557611054610c39565b5b61106188828901610f9b565b9350935050604061107488828901610c5c565b9150509295509295909350565b7f4e487b71000000000000000000000000000000000000000000000000000000005f52602260045260245ffd5b5f60028204905060018216806110c557607f821691505b6020821081036110d8576110d7611081565b5b50919050565b7f4f6e6c79206f776e65722063616e2070726f6d6f7465000000000000000000005f82015250565b5f611112601683610ca5565b915061111d826110de565b602082019050919050565b5f6020820190508181035f83015261113f81611106565b9050919050565b7f4e487b71000000000000000000000000000000000000000000000000000000005f52601160045260245ffd5b5f61117d82610c3d565b915061118883610c3d565b92508282019050808211156111a05761119f611146565b5b92915050565b7f446f6e6174696f6e206d757374206265203e20300000000000000000000000005f82015250565b5f6111da601483610ca5565b91506111e5826111a6565b602082019050919050565b5f6020820190508181035f830152611207816111ce565b9050919050565b7f43616d706169676e20646f6573206e6f742065786973740000000000000000005f82015250565b5f611242601783610ca5565b915061124d8261120e565b602082019050919050565b5f6020820190508181035f83015261126f81611236565b9050919050565b5f6040820190506112895f830185610d25565b6112966020830184610d25565b9392505050565b7f476f616c206d757374206265203e2030000000000000000000000000000000005f82015250565b5f6112d1601083610ca5565b91506112dc8261129d565b602082019050919050565b5f6020820190508181035f8301526112fe816112c5565b9050919050565b7f4e487b71000000000000000000000000000000000000000000000000000000005f52604160045260245ffd5b5f819050815f5260205f209050919050565b5f6020601f8301049050919050565b5f82821b905092915050565b5f6008830261138e7fffffffffffffffffffffffffffffffffffffffffffffffffffffffffffffffff82611353565b6113988683611353565b95508019841693508086168417925050509392505050565b5f819050919050565b5f6113d36113ce6113c984610c3d565b6113b0565b610c3d565b9050919050565b5f819050919050565b6113ec836113b9565b6114006113f8826113da565b84845461135f565b825550505050565b5f90565b611414611408565b61141f8184846113e3565b505050565b5b81811015611442576114375f8261140c565b600181019050611425565b5050565b601f8211156114875761145881611332565b61146184611344565b81016020851015611470578190505b61148461147c85611344565b830182611424565b50505b505050565b5f82821c905092915050565b5f6114a75f198460080261148c565b1980831691505092915050565b5f6114bf8383611498565b9150826002028217905092915050565b6114d882610c9b565b67ffffffffffffffff8111156114f1576114f0611305565b5b6114fb82546110ae565b611506828285611446565b5f60209050601f831160018114611537575f8415611525578287015190505b61152f85826114b4565b865550611596565b601f19841661154586611332565b5f5b8281101561156c57848901518255600182019150602085019450602081019050611547565b868310156115895784890151611585601f891682611498565b8355505b6001600288020188555050505b505050505050565b828183375f83830152505050565b5f6115b78385610ca5565b93506115c483858461159e565b6115cd83610cdd565b840190509392505050565b5f6040820190508181035f8301526115f18185876115ac565b90506116006020830184610d25565b94935050505056fea2646970667358221220c38501c8e48596472dba1faae96452341d9b5d3cb4e43dd794a845170fde59b564736f6c63430008150033",
  "immutableReferences": {},
  "source": "// SPDX-License-Identifier: MIT\r\npragma solidity ^0.8.0;\r\n\r\ncontract Kickstart {\r\n    struct Campaign {\r\n        string title;\r\n        string description;\r\n        uint256 goal;\r\n        uint256 funds;\r\n        address owner;\r\n        uint256 promotions;\r\n    }\r\n\r\n    mapping(uint256 => Campaign) public campaigns;\r\n    mapping(uint256 => address[]) public donors;\r\n    mapping(uint256 => mapping(address => uint256)) public donations;\r\n    uint256 public campaignCount;\r\n\r\n    event CampaignCreated(\r\n        uint256 indexed id,\r\n        address indexed owner,\r\n        string title,\r\n        uint256 goal\r\n    );\r\n    event Donated(\r\n        uint256 indexed id,\r\n        address indexed donor,\r\n        uint256 amount,\r\n        uint256 totalFunds\r\n    );\r\n    event Promoted(\r\n        uint256 indexed id,\r\n        uint256 totalPromotions\r\n    );\r\n\r\n    constructor() {\r\n        // nothing special here\r\n    }\r\n\r\n    function createCampaign(\r\n        string calldata _title,\r\n        string calldata _description,\r\n        uint256 _goal\r\n    ) external returns (uint256 id) {\r\n        require(_goal > 0, \"Goal must be > 0\");\r\n        campaignCount += 1;\r\n        id = campaignCount;\r\n        campaigns[id] = Campaign({\r\n            title: _title,\r\n            description: _description,\r\n            goal: _goal,\r\n            funds: 0,\r\n            owner: msg.sender,\r\n            promotions: 0\r\n        });\r\n        emit CampaignCreated(id, msg.sender, _title, _goal);\r\n    }\r\n\r\n    function donate(uint256 _id) external payable {\r\n        require(msg.value > 0, \"Donation must be > 0\");\r\n        Campaign storage c = campaigns[_id];\r\n        require(c.owner != address(0), \"Campaign does not exist\");\r\n        c.funds += msg.value;\r\n        if (donations[_id][msg.sender] == 0) {\r\n            donors[_id].push(msg.sender);\r\n        }\r\n        donations[_id][msg.sender] += msg.value;\r\n        emit Donated(_id, msg.sender, msg.value, c.funds);\r\n    }\r\n\r\n    function promote(uint256 _id) external {\r\n        Campaign storage c = campaigns[_id];\r\n        require(c.owner == msg.sender, \"Only owner can promote\");\r\n        c.promotions += 1;\r\n        emit Promoted(_id, c.promotions);\r\n    }\r\n\r\n    // Splintered getters to stay under the stack limit\r\n\r\n    function getCampaignCore(uint256 _id)\r\n        external\r\n        view\r\n        returns (\r\n            string memory title,\r\n            string memory description,\r\n            uint256 goal,\r\n            uint256 funds,\r\n            address owner,\r\n            uint256 promotions\r\n        )\r\n    {\r\n        Campaign storage c = campaigns[_id];\r\n        return (\r\n            c.title,\r\n            c.description,\r\n            c.goal,\r\n            c.funds,\r\n            c.owner,\r\n            c.promotions\r\n        );\r\n    }\r\n\r\n    function getDonors(uint256 _id)\r\n        external\r\n        view\r\n        returns (address[] memory)\r\n    {\r\n        return donors[_id];\r\n    }\r\n\r\n    function getCampaignCount() external view returns (uint256) {\r\n        return campaignCount;\r\n    }\r\n}\r\n",
  "sourcePath": "/home/igord/Blockchain-Project/truffle-deploy/contracts/Kickstart.sol",
  "compiler": {
    "name": "solc",
    "version": "0.8.21+commit.d9974bed.Emscripten.clang"
  },
  "schemaVersion": "3.4.16",
  "updatedAt": "2025-04-24T08:22:07.487Z",
  "devdoc": {
    "kind": "dev",
    "methods": {},
    "version": 1
  },
  "userdoc": {
    "kind": "user",
    "methods": {},
    "version": 1
  }
}